:0400000080312B28F8
:100008007E14803100308600003087000B1F0D28D9
:100018000E2829282100901E122813281C282000A9
:10002800901E172818281C2881317A218031292808
:100038002100111F2028212829282000111F2528E8
:10004800262829288131F62180317E100900803147
:100058002D28FC01FD012000A801A901AA01AB017E
:10006800AC01AD017E102000813139290310220036
:100078008E1C031403184128442822008E14462895
:1000880022008E1012308031F52080317108200056
:10009800AB007008AA002A08F0002B08F100F20152
:1000A800F3010030F7000030F6000230F50054305C
:1000B800F40080317C20803170082000AE00710887
:1000C800AF007208B0007308B1000A30B136B00C46
:1000D800AF0CAE0C890B6A282F08A9002E08A800BF
:1000E8002908F1002808F0008131652180310800D5
:1000F8000030FB000030FA000030F9000030F80052
:10010800701C8728882890287408F8077508F93D16
:100118007608FA3D7708FB3D0130F435F50DF60D0C
:10012800F70D890B91280130F336F20CF10CF00C25
:10013800890B98287308720471047004031DA5289C
:10014800A62884287B08F3007A08F2007908F100D1
:100158007808F000080022008C018E012B30210065
:100168008C003D308E00233023008C003D308E0003
:1001780024008C018E0125008C018E013730260069
:100188008C003F308E003F3027008C003F308E00BF
:100198000C303D009200023094002700910192013A
:1001A800930197019801990108008131DA21803182
:1001B8008031AF20803181318D2180318131B92169
:1001C800803181314F2180318131AD2180318131C0
:1001D8009F2180318131D02180318131C521803109
:1001E8000800F3007308F200F20DF20D21001D085B
:1001F8007206033972069D000032000021009D142A
:100208009D180729082904291C08F1001B08F0007B
:100218000800AD34013400340034F03401340034C3
:100228000034003400340034003400340034003426
:1002380000340034003400340034003400349F3477
:100248000134003400340034003400340034003405
:1002580000340034003400340034003400340034F6
:10026800003400340034003400348031D920813126
:100278003A302000B2000030B3008131E4218131EE
:100288008B170B178131F32181318131F0218131B5
:100298004C2980312B286D30200096008430950041
:1002A800503098001608FD001508FC00F930A4002D
:1002B8000130A50090122100901690302000970080
:1002C80008007108F3007008F200F336F20CF336F8
:1002D800F20C72082C00980070080339F2000630FE
:1002E800F235890B74297208970008007D082000F0
:1002F80096007C089500240825040319842985297B
:100308008A2925088A0024080A00813120009012D1
:10031800080021001D1001309D00D0309E009C0176
:100328009B019F012000AC01AD01111321001113A5
:1003380001309D000800953028009D009C01003088
:100348002000A2000030A3009213043028009E0071
:100358000800EA3020009E009D010030A000003017
:10036800A100911007309F0008008F3025009300EE
:1003780001309200D53091001F08FC3901389F00E8
:100388000800200010100B140030B2000030B30039
:100398008131EA218131080080302C0099004A30EF
:1003A8009800C030970003309F0408006230320084
:1003B80099009B019D0105309F009E019C0108004A
:1003C80020003308A5003208A400080020003308E4
:1003D800A7003208A600080020001F15080020000A
:0C03E800971708002000111308000800FF
:020000040001F9
:08000E008F3FF33FFF3FFF3F6E
:00000001FF
